:020000040800F2
:1000000000500020E11A0008951600089B16000811
:10001000A1160008A7160008AD1600080000000091
:10002000000000000000000000000000B3160008FF
:10003000BF16000800000000CB160008D716000805
:10004000291B0008291B0008291B0008291B000880
:10005000291B0008291B0008291B0008291B000870
:10006000291B0008291B0008291B0008291B000860
:10007000291B0008291B0008291B0008291B000850
:10008000291B0008291B0008291B0008291B000840
:10009000291B0008291B0008291B0008291B000830
:1000A000291B0008291B0008291B0008291B000820
:1000B000E5160008291B0008291B0008291B000859
:1000C000291B0008291B0008291B0008291B000800
:1000D000291B0008291B0008291B0008291B0008F0
:1000E000F9160008291B0008291B00080000000061
:1000F0000000000000000000000000000000000000
:0C01000000000000000000005FF808F1A3
:10010C0010B5054C237833B9044B13B10448AFF345
:10011C0000800123237010BDCC00002000000000E3
:10012C00E045000808B5034B1BB103490348AFF386
:10013C00008008BD00000000D0000020E045000851
:10014C0080B582B000AF00237B60A2E0554A7B688B
:10015C0052F8232054497B6841F82320534A7B688A
:10016C0052F823204F497B6841F823207B68032BEE
:10017C0036D801A252F823F095010008AB01000813
:10018C00C1010008D70100080221494801F0BCFF59
:10019C0003461946454A7B6842F8231021E010219A
:1001AC00434801F0B1FF03461946404A7B6842F8C8
:1001BC00231016E001213F4801F0A6FF0346194623
:1001CC003A4A7B6842F823100BE00121384801F0D1
:1001DC009BFF03461946354A7B6842F8231000E022
:1001EC0000BF304A7B6852F8232030497B6851F8B5
:1001FC0023309A424AD12B4A7B6852F823202A4951
:10020C007B6851F823309A4240D1274A7B6852F8D8
:10021C00232029497B6851F823309A4222D0224A64
:10022C007B6852F8232024497B6841F82320224A1A
:10023C007B6852F82330002B09D1204A7B684FF49D
:10024C00967142F82310786800F03EF81EE01C4AC4
:10025C007B68002142F823101A4A7B68002142F87F
:10026C00231013E0154A7B6852F823305A1E1349A9
:10027C007B6841F82320114A7B6852F82330002B0D
:10028C0004D10D4A7B68012142F823107B680133AD
:10029C007B607B68032B7FF759AF00BF00BF08372B
:1002AC00BD4680BD10000020200000200000002072
:1002BC0000080140000C01403000002040000020EC
:1002CC0008010020E800002080B483B000AF786003
:1002DC000F4A7B68012142F823100E4A7B6852F8C2
:1002EC002330002B05D10B4A7B68012142F82310E7
:1002FC0009E0094A7B68012142F82310044A7B6813
:10030C00002142F8231000BF0C37BD4680BC70475B
:10031C00F8000020E80000200801002080B483B021
:10032C0000AF7860094A7B6852F82330012B06D164
:10033C00064A7B68002142F82310012300E00023C9
:10034C0018460C37BD4680BC704700BFF800002033
:10035C0080B483B000AF7860064A7B6852F82330D3
:10036C00012B0CBF01230023DBB218460C37BD4612
:10037C0080BC70470801002080B483B000AF0346F6
:10038C00FB71044B1B68FA795A6300BF0C37BD46EE
:10039C0080BC70477801002080B500AF3220FFF799
:1003AC00EBFF00BF80BD80B500AF0020FFF7E4FF7E
:1003BC0000BF80BD80B500AF054B1B78512B02D11F
:1003CC00FFF7EAFF01E0FFF7EEFF00BF80BD00BFC3
:1003DC003701002080B483B000AF03463960FB7155
:1003EC00FB793A680549A1FB0212D208044941F88D
:1003FC00232000BF0C37BD4680BC7047CDCCCCCC85
:10040C00C001002080B485B000AF0346FB71FB79BE
:10041C00154A52F8232013469B0013445B001A46DE
:10042C00124BA3FB02139B094FF47A7101FB03F3EC
:10043C00D31A002B14BF01230023DBB2FB60FB7922
:10044C00094A52F8232013469B0013445B001A46BA
:10045C00064BA3FB02239A09FB6813441846143776
:10046C00BD4680BC704700BFC0010020D34D621058
:10047C0080B400AF0C4B1B68002B03D00A4B1B68DD
:10048C00013B00E00023084A1360074B5B68002B1C
:10049C0003D0054B5B68013B00E00023024A53602C
:1004AC0000BFBD4680BC7047C001002080B400AFC7
:1004BC00044B32221A70044B3C221A7000BFBD460A
:1004CC0080BC7047180100203501002080B500AFBA
:1004DC000120FFF797FF0346094A1360084B1A687F
:1004EC00084B1B689A4205D0054B1B6819460648F9
:1004FC0001F0CCFA024B1B68024A136000BF80BDAE
:10050C002401002020010020F845000880B500AF30
:10051C0000F0B2FC03465B000F4A1360052001F0AB
:10052C004FFA0346002B14D0C821052001F02EFAF7
:10053C000A4B1B78482B06D1084B47221A70084BE4
:10054C0051221A7005E0054B48221A70044B5222B6
:10055C001A7000BF80BD00BF1C01002036010020B6
:10056C003701002080B500AFFFF7D0FF2F4B1B7871
:10057C003E2B2AD03E2B51DC3C2B02D03D2B04D001
:10058C004CE02A4B3D221A704DE0FFF79FFF0021F3
:10059C00072000F095FCFFF706FF0320FFF7BEFED7
:1005AC000346002B3CD0032001F022FA204B1B68A1
:1005BC001946032001F0EAF91D4B1B68194601206E
:1005CC00FFF708FFFFF7EFFE2AE0FFF77FFF00F0D1
:1005DC00B3F80346032B06D90121072000F070FC69
:1005EC00FFF7E1FE04E0012000F056FDFFF7E2FE0C
:1005FC000320FFF793FE0346002B13D0032001F0DA
:10060C00F7F90B4B1B681946032001F0BFF9084B97
:10061C001B6819460120FFF7DDFE03E000BF02E076
:10062C0000BF00E000BF00BF80BD00BF350100204F
:10063C001C01002080B500AF2D4B1B78342B38D01B
:10064C00342B4DDC322B02D0332B07D048E0072063
:10065C0000F0E6FC264B33221A7046E0072000F02F
:10066C00DFFCFFF7A0FE0320FFF758FE0346002B2C
:10067C0038D01F4B34221A7000F0FEFB03465B008F
:10068C001C4A1360032001F0B3F91A4B1B6819467E
:10069C00032001F07BF9174B1B6819460120FFF76B
:1006AC0099FE052001F0A4F9C821052001F06EF98E
:1006BC0018E0FFF757FF032001F082F90346002BE7
:1006CC0002D00B4B33221A7000F0C6FB0346002BF2
:1006DC000AD0032001F08CF9054B33221A7003E089
:1006EC0000BF02E000BF00E000BF00BF80BD00BF44
:1006FC00180100201C01002080B400AF094B0A2215
:10070C001A70094B14221A70084B14221A70084BD9
:10071C001E221A70074B28221A7000BFBD4680BCDF
:10072C00704700BF30010020310100203201002051
:10073C00330100203401002080B400AF024B1B6851
:10074C001846BD4680BC70472C01002080B500AF18
:10075C000020FFF757FE03460B4A13600A4B1B6839
:10076C00002B0BD0084B1A68084B1B689A4205D01B
:10077C00054B1B681946064801F088F9024B1B68AB
:10078C00024A136000BF80BD2C010020280100200C
:10079C001046000880B500AF414B1B78143B032B6F
:1007AC0074D801A252F823F0C5070008E507000829
:1007BC00230800085B080008394B15221A70394BC6
:1007CC001B681946002001F0E1F8364B1B681946EE
:1007DC000020FFF7FFFD60E00021052000F070FB1A
:1007EC00FFF7B4FF002001F0EBF80346002B4FD0CD
:1007FC002B4B16221A702C4B3D221A70294B5B681E
:10080C001946002001F0C2F8264B5B6819460020FF
:10081C00FFF7E0FD3CE00121052000F051FBFFF764
:10082C0095FF002001F0CCF80346002B32D01C4B76
:10083C0017221A701B4B9B681946002001F0A6F872
:10084C00184B9B6819460020FFF7C4FD22E00221DB
:10085C00052000F035FBFFF779FF002001F0B0F820
:10086C000346002B18D00E4B15221A700E4B3E224D
:10087C001A700C4B1B681946002001F087F8094BC5
:10088C001B6819460020FFF7A5FD05E000BF04E03A
:10089C0000BF02E000BF00E000BF00BF80BD00BF92
:1008AC0031010020500000203501002080B500AF40
:1008BC002F4B1B78143B032B50D801A252F823F07A
:1008CC00DD080008F10800081909000841090008B2
:1008DC00274B16221A70274B5B681946012001F032
:1008EC0055F842E00021062000F0EAFA012001F060
:1008FC0067F80346002B33D01D4B16221A701D4B84
:10090C005B681946012001F041F829E0012106201D
:10091C0000F0D6FA012001F053F80346002B21D049
:10092C00134B17221A70134BDB6D1946012001F083
:10093C002DF817E00221062000F0C2FA012001F088
:10094C003FF80346002B0FD0094B15221A70094BA8
:10095C005B6D1946012001F019F805E000BF04E0B9
:10096C0000BF02E000BF00E000BF00BF80BD00BFC1
:10097C00320100205000002080B500AF374B1B78AF
:10098C001E3B042B5ED801A252F823F0AD090008DF
:10099C00B5090008D9090008030A0008270A00084D
:1009AC002E4B1F221A7056E00021052000F088FA09
:1009BC000121062000F084FA0120FFF7AFFC03466A
:1009CC00002B41D0254B20221A703DE00021052040
:1009DC0000F076FA0221062000F072FA0120FFF7EF
:1009EC009DFC0346002B31D01C4B21221A701C4B52
:1009FC003D221A702AE00121052000F061FA002145
:100A0C00062000F05DFA0120FFF788FC0346002B5E
:100A1C001ED0124B22221A701AE00221052000F07F
:100A2C004FFA0021062000F04BFA0120FFF776FC6C
:100A3C000346002B0ED0094B1F221A70084B3E2286
:100A4C001A7007E000BF06E000BF04E000BF02E040
:100A5C0000BF00E000BF00BF80BD00BF330100201D
:100A6C003501002080B483B000AF0346FB71FB79E5
:100A7C00104A52F82320FB7902F57A720D4941F89D
:100A8C002320FB790B4A52F8233042F21072934226
:100A9C000AD9FB79074A52F82330FA79A3F51C538B
:100AAC00103B044941F8223000BF0C37BD4680BCD6
:100ABC00704700BF5000002080B500AF604B1B7822
:100ACC00283B032B00F2B28001A252F823F000BFA6
:100ADC00ED0A0008F50A0008610B0008CD0B0008B0
:100AEC00574B29221A70A8E00021052000F0E8F9E4
:100AFC000021062000F0E4F90220FFF70FFC03466A
:100B0C00002B09D00020FFF7ADFF022000F070FF92
:100B1C000A21022000F03AFF0220FFF719FC0346DD
:100B2C00002B0DD0022000F04BFF0346002B07D00A
:100B3C000020FFF797FF4FF4FA71022000F026FF18
:100B4C000120FFF7EBFB0346002B71D03C4B2A2214
:100B5C001A706DE00121052000F0B2F90121062088
:100B6C0000F0AEF90220FFF7D9FB0346002B09D0A9
:100B7C000120FFF777FF022000F03AFF0A21022044
:100B8C0000F004FF0220FFF7E3FB0346002B0DD01F
:100B9C00022000F015FF0346002B07D00120FFF7C1
:100BAC0061FF4FF4FA71022000F0F0FE0120FFF714
:100BBC00B5FB0346002B3DD0214B2B221A7039E09C
:100BCC000221052000F07CF90221062000F078F9C2
:100BDC000220FFF7A3FB0346002B09D00220FFF7EE
:100BEC0041FF022000F004FF0A21022000F0CEFE9B
:100BFC000220FFF7ADFB0346002B0DD0022000F0C6
:100C0C00DFFE0346002B07D00220FFF72BFF4FF42B
:100C1C00FA71022000F0BAFE0120FFF77FFB0346B9
:100C2C00002B09D0064B29221A7005E000BF04E006
:100C3C0000BF02E000BF00E000BF00BF80BD00BFEE
:100C4C003401002080B500AF7C4B1B780A3B032B92
:100C5C0000F2EA8001A252F823F000BF790C0008E0
:100C6C00850C0008FF0C0008230D000800F014F997
:100C7C00724B0B221A70DEE0FFF78CFDFFF716FEAD
:100C8C000020FFF74BFB0346002B30D000F004F99B
:100C9C006A4B0C221A706A4B42F210721A600021D5
:100CAC000020FFF797FB674B1B78172B1BD0172BDC
:100CBC0000F3BC80152B02D0162B10D0B6E0624B83
:100CCC001B78162B02D0172B04D011E05F4B1F2280
:100CDC001A7003E05D4B20221A7000BF08E05B4BDA
:100CEC0021221A7004E0594B22221A7000E000BF36
:100CFC009CE0FFF741FE0020FFF710FB0346002BA2
:100D0C0000F096804D4B0D221A70514B28221A7010
:100D1C0000F0C2F88CE0FFF7CFFE0020FFF7FEFAE0
:100D2C000346002B7ED0454B0B221A7000F0B4F812
:100D3C00002000F05DFE012000F05AFE434B1B78B2
:100D4C001F3B032B76D801A252F823F0690D000843
:100D5C009B0D0008CD0D0008FF0D0008394B152226
:100D6C001A703C4B1B681946002000F00FFE394BE3
:100D7C001B6819460020FFF72DFB334B16221A7007
:100D8C00344B5B681946012000F000FE4BE02D4B04
:100D9C0015221A702F4B9B681946002000F0F6FDA7
:100DAC002C4B9B6819460020FFF714FB264B17228F
:100DBC001A70284B9B681946012000F0E7FD32E0C1
:100DCC00204B16221A70234B5B681946002000F04A
:100DDC00DDFD204B5B6819460020FFF7FBFA1A4B30
:100DEC0015221A701B4B1B681946012000F0CEFD12
:100DFC0019E0144B17221A70164B9B6819460020E9
:100E0C0000F0C4FD134B9B6819460020FFF7E2FA73
:100E1C000D4B15221A700F4B9B681946012000F0E0
:100E2C00B5FD00E000BF05E000BF04E000BF02E03C
:100E3C0000BF00E000BF00BF80BD00BF300100203C
:100E4C002C01002031010020320100203301002050
:100E5C00340100205000002080B400AF054B1B78FB
:100E6C000D2B01D1012300E000231846BD4680BCA8
:100E7C00704700BF3001002080B400AF054B1A68EA
:100E8C00044B5B681A44034B9B6813441846BD46DD
:100E9C0080BC70475000002080B500AF00224FF49A
:100EAC00A061054801F047F900224FF4876103481F
:100EBC0001F041F900BF80BD00080140000C014069
:100ECC0080B582B000AF03460A46FB711346BB7176
:100EDC00FB79072B63D0072B00F39380052B02D0F3
:100EEC00062B30D08DE0BB79022B1FD0022B00F3E8
:100EFC008A80002B02D0012B0CD084E001224FF40D
:100F0C008061454801F017F900220821434801F09F
:100F1C0012F917E000224FF480613F4801F00BF901
:100F2C00012208213D4801F006F90BE001224FF4A3
:100F3C008061394801F0FFF801220821374801F09F
:100F4C00FAF800BF5FE0BB79022B1CD0022B5CDCF3
:100F5C00002B02D0012B0BD057E0012220212F486F
:100F6C0001F0E9F8002210212C4801F0E4F815E01A
:100F7C0000222021294801F0DEF801221021274807
:100F8C0001F0D9F80AE001222021244801F0D3F81D
:100F9C0001221021214801F0CEF800BF35E0BB79C9
:100FAC00022B20D0022B32DC002B02D0012B0DD0D7
:100FBC002DE001224FF48061184801F0BCF80022AA
:100FCC004FF48071144801F0B6F819E001224FF487
:100FDC008061124801F0AFF800224FF480710E4886
:100FEC0001F0A9F80CE001224FF480610B4801F0EC
:100FFC00A2F801224FF48071074801F09CF800BF61
:10100C0005E000BF04E000BF02E000BF00E000BF4D
:10101C0000BF0837BD4680BD00080140000C0140F0
:10102C0080B582B000AF0346FB71FB79072B1DD056
:10103C00072B28DC052B02D0062B0CD023E000223A
:10104C004FF48061124801F076F800220821114813
:10105C0001F071F818E0002220210E4801F06BF825
:10106C00002210210B4801F066F80DE000224FF42D
:10107C008061084801F05FF800224FF48071044849
:10108C0001F059F800E000BF00BF0837BD4680BD35
:10109C0000080140000C014080B582B000AF03464F
:1010AC00FB71084B1B78472B05D1FB7919460720A0
:1010BC00FFF706FF02E00720FFF7B2FF00BF08377B
:1010CC00BD4680BD3601002080B500AF00F028FD84
:1010DC0000F01EF800F04AF900F01EF900F05AF882
:1010EC0000F0A4F8084801F0CBFC0021074801F0FF
:1010FC0071FD00F00BFCFFF7FFFAFFF7D7F9FFF7D4
:10110C00A1FDFFF797FAFAE7C8010020780100204B
:10111C0080B590B000AF07F11803282200211846C3
:10112C0002F016FE3B1D00221A605A609A60DA60CB
:10113C001A610223BB610123BB621023FB620223F1
:10114C007B630023BB634FF46013FB6307F118034D
:10115C00184601F02BF80346002B01D000F0B4F92F
:10116C000F237B600223BB600023FB604FF4806382
:10117C003B6100237B613B1D0221184601F096FA6E
:10118C000346002B01D000F09FF900BF4037BD464D
:10119C0080BD000080B586B000AF07F108030022C7
:1011AC001A605A609A60DA603B4600221A605A60F4
:1011BC001D4B4FF080421A601B4B3F225A601A4B5A
:1011CC0000229A60184B42F20F72DA60164B002222
:1011DC001A61154B00229A61134801F001FC034679
:1011EC00002B01D000F070F94FF48053BB6007F175
:1011FC00080319460C4801F055FF0346002B01D09B
:10120C0000F062F900233B6000237B603B461946EB
:10121C00054802F0D3FA0346002B01D000F054F934
:10122C0000BF1837BD4680BDC801002080B58EB008
:10123C0000AF07F1280300221A605A609A60DA6046
:10124C0007F1200300221A605A603B1D00221A602D
:10125C005A609A60DA601A615A619A612C4B2D4A75
:10126C001A602B4B3F225A60294B00229A60284B64
:10127C0040F2E732DA60264B00221A61244B00223E
:10128C009A61234801F0ACFB0346002B01D000F01F
:10129C001BF94FF48053BB6207F1280319461C4815
:1012AC0001F000FF0346002B01D000F00DF91848A7
:1012BC0001F038FC0346002B01D000F005F90023A7
:1012CC003B6200237B6207F120031946104802F0B1
:1012DC0075FA0346002B01D000F0F6F860237B6012
:1012EC000023BB600023FB6000237B613B1D0022BD
:1012FC001946074801F018FE0346002B01D000F0F8
:10130C00E3F8034800F050F900BF3837BD4680BD04
:10131C00780100200004004080B500AF114B124A48
:10132C001A60104B4FF4E1325A600E4B00229A6057
:10133C000C4B0022DA600B4B00221A61094B0C2279
:10134C005A61084B00229A61064B0022DA6105486B
:10135C0002F0A4FA0346002B01D000F0B5F800BF50
:10136C0080BD00BF180200200044004080B588B04A
:10137C0000AF07F1100300221A605A609A60DA601D
:10138C00454B9B69444A43F010039361424B9B6964
:10139C0003F01003FB60FB683F4B9B693E4A43F034
:1013AC00200393613C4B9B6903F02003BB60BB683B
:1013BC00394B9B69384A43F004039361364B9B6964
:1013CC0003F004037B607B68334B9B69324A43F028
:1013DC0008039361304B9B6903F008033B603B6847
:1013EC0000224FF4A4612D4800F0A5FE00224FF41A
:1013FC0087612B4800F09FFE4FF400533B61294B53
:10140C007B610023BB6107F110031946264800F0ED
:10141C00F7FC13233B6100237B610123BB6107F1C4
:10142C00100319461D4800F0EBFC4FF4A4633B611C
:10143C0001237B610023BB610223FB6107F11003D5
:10144C001946164800F0DCFC01233B6100237B614C
:10145C000123BB6107F110031946114800F0D0FCC1
:10146C004FF487633B6101237B610023BB61022343
:10147C00FB6107F110031946094800F0C1FC00227A
:10148C000021282000F085FC282000F09EFC00BFE5
:10149C002037BD4680BD00BF00100240000801404F
:1014AC00000C0140000011100010014080B582B00A
:1014BC0000AF786000F038FAFEF742FEFEF7D8FF76
:1014CC0000BF0837BD4680BD80B400AF72B600BF08
:1014DC00FEE7000080B485B000AF154B9B69144A41
:1014EC0043F001039361124B9B6903F00103BB6052
:1014FC00BB680F4BDB690E4A43F08053D3610C4B36
:10150C00DB6903F080537B607B680A4B5B68FB6094
:10151C00FB6823F0E063FB60FB6843F00073FB6047
:10152C00044AFB68536000BF1437BD4680BC70474B
:10153C00001002400000014080B584B000AF78601C
:10154C007B681B68B3F1804F14D1154BDB69144ACF
:10155C0043F00103D361124BDB6903F00103FB6021
:10156C00FB68002200211C2000F013FC1C2000F062
:10157C002CFC10E07B681B680A4A93420BD1084B89
:10158C00DB69074A43F00203D361054BDB6903F0C7
:10159C000203BB60BB6800BF1037BD4680BD00BFF7
:1015AC00001002400004004080B588B000AF7860A5
:1015BC0007F1100300221A605A609A60DA607B68A7
:1015CC001B680F4A934217D10E4B9B690D4A43F08F
:1015DC00040393610B4B9B6903F00403FB60FB68F2
:1015EC0040233B6102237B610223FB6107F1100363
:1015FC001946054800F004FC00BF2037BD4680BDED
:10160C0000040040001002400008014080B588B082
:10161C0000AF786007F1100300221A605A609A60DC
:10162C00DA607B681B68154A934223D1144BDB6943
:10163C00134A43F40033D361114BDB6903F40033D9
:10164C00FB60FB680E4B9B690D4A43F004039361EE
:10165C000B4B9B6903F00403BB60BB680C233B6121
:10166C0002237B610223FB6107F110031946054835
:10167C0000F0C6FB00BF2037BD4680BD00440040D3
:10168C00001002400008014080B400AFFEE780B4B7
:10169C0000AFFEE780B400AFFEE780B400AFFEE71A
:1016AC0080B400AFFEE780B400AF00BFBD4680BC85
:1016BC00704780B400AF00BFBD4680BC704780B49B
:1016CC0000AF00BFBD4680BC704780B500AF00F0D6
:1016DC006DFA00BF80BD000080B500AF024801F07C
:1016EC001BFB00BF80BD00BFC801002080B500AF50
:1016FC004FF4005000F038FD00BF80BD80B586B0BF
:10170C0000AF7860144A154BD31A7B617B693B613F
:10171C00134B1B68002B02D1114B124A1A60104B51
:10172C001A687B6813443A699A4207D202F0D6FAD7
:10173C0003460C221A604FF0FF3309E0084B1B687C
:10174C00FB60074B1A687B681344054A1360FB68FF
:10175C0018461837BD4680BD00500020000400001C
:10176C00380100207002002080B400AF00BFBD46DD
:10177C0080BC704780B584B000AF03463960FB7104
:10178C00082002F0D5FA0346FB60FB68002B01D160
:10179C0000230AE0FB68FA791A703B68DAB2FB683E
:1017AC005A70FB6800225A60FB6818461037BD4619
:1017BC0080BD80B582B000AF7860786802F0C0FA66
:1017CC0000BF0837BD4680BD80B487B000AF7860DD
:1017DC003E4B1B78062B73D03C4B1B78002B09D14E
:1017EC003A4A7B685360394B1B780133DAB2374B7A
:1017FC001A7066E0354B5B687B6100233B6100230C
:10180C00FB6010E07B695B781A46FB681344FB6055
:10181C007B685B781A46FB68934208D87B693B610E
:10182C007B695B687B617B69002BEBD100E000BFBF
:10183C003B69002B14D17B687A695A607B695A78B2
:10184C007B685B78D31ADAB27B695A701F4A7B6863
:10185C0053601E4B1B780133DAB21C4B1A7030E00C
:10186C003B697A685A607B687A695A607B69002B9D
:10187C0008D17B685A78FB68DBB2D31ADAB27B6882
:10188C005A7016E07B685B78BB607B685A787B6922
:10189C005978FB68DBB2CB1ADBB21344DAB27B6843
:1018AC005A70FB68DAB2BB68DBB2D31ADAB27B6966
:1018BC005A70064B1B780133DAB2044B1A7000E0F5
:1018CC0000BF1C37BD4680BC704700BF1002002013
:1018DC0080B582B000AF0C4B1B78002B10D00A4B9C
:1018EC005B687B607B685B68074A53607868FFF7CE
:1018FC0060FF054B1B78013BDAB2034B1A7000E01A
:10190C0000BF0837BD4680BD1002002080B400AF78
:10191C00044B00225A60034B00221A7000BFBD46D4
:10192C0080BC70471002002080B582B000AF154B10
:10193C001B78002B21D0134B5B685A78013AD2B23A
:10194C005A70104B5B685B78002B17D10023FB712E
:10195C0009E00C4B5B681B78FB71FB790A4A01218F
:10196C00D154FFF7B5FF074B1B78002B06D0054B66
:10197C005B685B78002BECD000E000BF0837BD46FD
:10198C0080BD00BF100200203C01002080B584B057
:10199C0000AF03463960FB713B68084AA2FB032386
:1019AC00DA08FB7911461846FFF7E4FEF860F86890
:1019BC00FFF70AFF00BF1037BD4680BDCDCCCCCCA5
:1019CC0080B483B000AF0346FB71FB79074AD35C4C
:1019DC00012B05D1FB79054A0021D154012300E0EC
:1019EC00002318460C37BD4680BC70473C010020D4
:1019FC0080B584B000AF0346FB71FB79214A00210E
:101A0C00D154214B5B68FB600023BB6009E0FB6891
:101A1C001B78FA799A4208D0FB68BB60FB685B685C
:101A2C00FB60FB68002BF2D100E000BFFB68002BD1
:101A3C0023D0BB68002B04D1FB685B68124A53604F
:101A4C0003E0FB685A68BB685A60FB685B68002B54
:101A5C0009D0FB685B685978FB685A78FB685B684F
:101A6C000A44D2B25A70F868FFF7A3FE064B1B78F3
:101A7C00013BDAB2044B1A7000E000BF1037BD46D0
:101A8C0080BD00BF3C0100201002002080B582B058
:101A9C0000AF786039603B687A680A490A4802F0FE
:101AAC0015FA4FF47A7328220749084801F043FFCE
:101ABC0001220749054801F0D0FF00BF0837BD4699
:101ACC0080BD00BF304600085001002018020020E5
:101ADC004C0100200C480D490D4A002302E0D4585B
:101AEC00C4500433C4188C42F9D30A4A0A4C00235C
:101AFC0001E013600432A242FBD3FFF735FE02F083
:101B0C00F3F8FFF7E1FA704700000020CC0000204A
:101B1C009C460008CC00002070020020FEE700006C
:101B2C0080B500AF084B1B68074A43F010031360E5
:101B3C00032000F023F9002000F008F8FFF7CAFC9E
:101B4C000023184680BD00BF0020024080B582B043
:101B5C0000AF7860124B1A68124B1B7819464FF481
:101B6C007A73B3FBF1F3B2FBF3F3184600F03BF9D5
:101B7C000346002B01D001230EE07B680F2B0AD803
:101B8C00002279684FF0FF3000F003F9064A7B68B9
:101B9C001360002300E0012318460837BD4680BDC2
:101BAC005C000020640000206000002080B400AFC6
:101BBC00054B1B781A46054B1B681344034A1360EC
:101BCC0000BFBD4680BC7047640000205C02002052
:101BDC0080B400AF024B1B681846BD4680BC7047F2
:101BEC005C02002080B485B000AF78607B6803F0A5
:101BFC000703FB600C4BDB68BB60BA684FF6FF0356
:101C0C001340BB60FB681A02BB68134343F0BF630D
:101C1C0043F40033BB60044ABB68D36000BF143785
:101C2C00BD4680BC704700BF00ED00E080B400AF43
:101C3C00044BDB681B0A03F007031846BD4680BC47
:101C4C00704700BF00ED00E080B483B000AF0346E6
:101C5C00FB7197F90730002B0BDBFB7903F01F02AC
:101C6C00064997F907305B09012000FA02F241F8A6
:101C7C00232000BF0C37BD4680BC704700E100E05C
:101C8C0080B483B000AF03463960FB7197F907301D
:101C9C00002B0ADB3B68DAB20C4997F907301201CA
:101CAC00D2B20B4483F800230AE03B68DAB208494D
:101CBC00FB7903F00F03043B1201D2B20B441A76EA
:101CCC0000BF0C37BD4680BC704700BF00E100E090
:101CDC0000ED00E080B489B000AFF860B9607A60C4
:101CEC00FB6803F00703FB61FB69C3F10703042BDB
:101CFC0028BF0423BB61FB690433062B02D9FB69A3
:101D0C00033B00E000237B614FF0FF32BB6902FA1A
:101D1C0003F3DA43BB681A407B699A404FF0FF31FA
:101D2C007B6901FA03F3D9437B680B4013431846D4
:101D3C002437BD4680BC704780B582B000AF786058
:101D4C007B68013BB3F1807F01D301230FE00A4A8A
:101D5C007B68013B53600F214FF0FF30FFF790FF82
:101D6C00054B00229A60044B07221A600023184688
:101D7C000837BD4680BD00BF10E000E080B582B0E2
:101D8C0000AF78607868FFF72DFF00BF0837BD46BD
:101D9C0080BD80B586B000AF0346B9607A60FB7336
:101DAC0000237B61FFF742FF78617A68B968786934
:101DBC00FFF790FF024697F90F3011461846FFF7D0
:101DCC005FFF00BF1837BD4680BD80B582B000AF45
:101DDC000346FB7197F907301846FFF735FF00BF34
:101DEC000837BD4680BD80B582B000AF786078689A
:101DFC00FFF7A2FF034618460837BD4680BD00001A
:101E0C0080B48BB000AF7860396000237B62002314
:101E1C003B6269E101227B6A02FA03F3FB613B68D6
:101E2C001B68FA691340BB61BA69FB699A4240F0BE
:101E3C0058813B685B689A4A93425ED0984A9342B9
:101E4C0075D8984A934258D0964A93426FD8964A7E
:101E5C00934252D0944A934269D8944A93424CD0BC
:101E6C00924A934263D8924A934246D0904A934204
:101E7C005DD8122B2AD8122B59D801A252F823F074
:101E8C00071F0008E11E0008F31E0008351F00089C
:101E9C003B1F00083B1F00083B1F00083B1F0008AE
:101EAC003B1F00083B1F00083B1F00083B1F00089E
:101EBC003B1F00083B1F00083B1F00083B1F00088E
:101ECC003B1F0008E91E0008FD1E0008794A9342DA
:101EDC0013D02CE03B68DB683B6229E03B68DB6895
:101EEC0004333B6224E03B68DB6808333B621FE051
:101EFC003B68DB680C333B621AE03B689B68002B49
:101F0C0002D104233B6213E03B689B68012B05D193
:101F1C0008233B627B68FA691A6109E008233B627B
:101F2C007B68FA695A6103E000233B6200E000BF62
:101F3C00BB69FF2B01D87B6801E07B6804337B61B4
:101F4C00BB69FF2B02D87B6A9B0002E07B6A083BD3
:101F5C009B003B617B691A680F213B6901FA03F313
:101F6C00DB431A40396A3B6901FA03F31A437B6974
:101F7C001A603B685B6803F08053002B00F0B18063
:101F8C004D4B9B694C4A43F0010393614A4B9B694F
:101F9C0003F00103BB60BB68484A7B6A9B080233B1
:101FAC0052F82330FB607B6A03F003039B000F2283
:101FBC0002FA03F3DB43FA681340FB607B68404A88
:101FCC00934213D07B683F4A93420DD07B683E4AC4
:101FDC00934207D07B683D4A934201D1032306E02C
:101FEC00042304E0022302E0012300E000237A6AC8
:101FFC0002F0030292009340FA681343FB602F49EE
:10200C007B6A9B080233FA6841F823203B685B68C3
:10201C0003F48033002B06D02D4B1A682C49BB6976
:10202C0013430B6006E02A4B1A68BB69DB43284953
:10203C0013400B603B685B6803F40033002B06D045
:10204C00234B5A682249BB6913434B6006E0204B73
:10205C005A68BB69DB431E4913404B603B685B68A5
:10206C0003F48013002B06D0194B9A681849BB69EE
:10207C0013438B6006E0164B9A68BB69DB4314492B
:10208C0013408B603B685B6803F40013002B21D07A
:10209C000F4BDA680E49BB691343CB6021E000BFDC
:1020AC00000032100000311000002210000021103E
:1020BC00000012100000111000100240000001403E
:1020CC0000080140000C01400010014000140140C8
:1020DC00000401400B4BDA68BB69DB430949134030
:1020EC00CB607B6A01337B623B681A687B6A22FA9D
:1020FC0003F3002B7FF48EAE00BF00BF2C37BD4620
:10210C0080BC70470004014080B485B000AF78609B
:10211C000B467B807B689A687B881340002B02D02F
:10212C000123FB7301E00023FB73FB7B1846143780
:10213C00BD4680BC704780B483B000AF78600B465E
:10214C007B8013467B707B78002B03D07A887B686E
:10215C001A6103E07B881A047B681A6100BF0C3794
:10216C00BD4680BC7047000080B582B000AF03460E
:10217C00FB80084B5A69FB881340002B06D0054A9C
:10218C00FB885361FB88184600F006F800BF08373F
:10219C00BD4680BD0004014080B483B000AF03464F
:1021AC00FB8000BF0C37BD4680BC704780B586B045
:1021BC0000AF78607B68002B01D101236CE27B6857
:1021CC001B6803F00103002B00F08780924B5B68C7
:1021DC0003F00C03042B0CD08F4B5B6803F00C0347
:1021EC00082B12D18C4B5B6803F48033B3F5803F22
:1021FC000BD1894B1B6803F40033002B6CD07B682C
:10220C005B68002B68D1012346E27B685B68B3F501
:10221C00803F06D1804B1B687F4A43F480331360A8
:10222C002EE07B685B68002B0CD17B4B1B687A4AD9
:10223C0023F480331360784B1B68774A23F4802394
:10224C0013601DE07B685B68B3F5A02F0CD1724B5B
:10225C001B68714A43F4802313606F4B1B686E4AF2
:10226C0043F4803313600BE06B4B1B686A4A23F416
:10227C0080331360684B1B68674A23F48023136018
:10228C007B685B68002B13D0FFF7A2FC386108E079
:10229C00FFF79EFC02463B69D31A642B01D903233A
:1022AC00FAE15D4B1B6803F40033002BF0D014E013
:1022BC00FFF78EFC386108E0FFF78AFC02463B69A9
:1022CC00D31A642B01D90323E6E1534B1B6803F4A7
:1022DC000033002BF0D100E000BF7B681B6803F0DB
:1022EC000203002B63D04C4B5B6803F00C03002BF8
:1022FC000BD0494B5B6803F00C03082B1CD1464BED
:10230C005B6803F48033002B16D1434B1B6803F03E
:10231C000203002B05D07B681B69012B01D0012324
:10232C00BAE13D4B1B6823F0F8027B685B69DB006C
:10233C00394913430B603AE07B681B69002B20D0B2
:10234C00364B01221A60FFF743FC386108E0FFF7B7
:10235C003FFC02463B69D31A022B01D903239BE1B4
:10236C002D4B1B6803F00203002BF0D02A4B1B688B
:10237C0023F0F8027B685B69DB00274913430B6091
:10238C0015E0264B00221A60FFF722FC386108E0AA
:10239C00FFF71EFC02463B69D31A022B01D903231B
:1023AC007AE11D4B1B6803F00203002BF0D17B6814
:1023BC001B6803F00803002B3AD07B689B69002B49
:1023CC0019D0174B01221A60FFF702FC386108E0A4
:1023DC00FFF7FEFB02463B69D31A022B01D90323FC
:1023EC005AE10D4B5B6A03F00203002BF0D0012085
:1023FC0000F0D8FA1CE00A4B00221A60FFF7E8FB49
:10240C0038610FE0FFF7E4FB02463B69D31A022B5D
:10241C0008D9032340E100BF0010024000004242F3
:10242C00800442429E4B5B6A03F00203002BE9D10D
:10243C007B681B6803F00403002B00F0A6800023CC
:10244C00FB75974BDB6903F08053002B0DD1944B3C
:10245C00DB69934A43F08053D361914BDB6903F002
:10246C008053BB60BB680123FB758E4B1B6803F468
:10247C008073002B18D18B4B1B688A4A43F48073F2
:10248C001360FFF7A5FB386108E0FFF7A1FB0246DC
:10249C003B69D31A642B01D90323FDE0814B1B68E4
:1024AC0003F48073002BF0D07B68DB68012B06D122
:1024BC007B4B1B6A7A4A43F0010313622DE07B6865
:1024CC00DB68002B0CD1764B1B6A754A23F0010399
:1024DC001362734B1B6A724A23F0040313621CE0F1
:1024EC007B68DB68052B0CD16D4B1B6A6C4A43F087
:1024FC00040313626A4B1B6A694A43F001031362BB
:10250C000BE0674B1B6A664A23F001031362644BB2
:10251C001B6A634A23F0040313627B68DB68002B9D
:10252C0015D0FFF755FB38610AE0FFF751FB024667
:10253C003B69D31A41F28832934201D90323ABE0B1
:10254C00574B1B6A03F00203002BEED014E0FFF78D
:10255C003FFB38610AE0FFF73BFB02463B69D31AAD
:10256C0041F28832934201D9032395E04C4B1B6A0C
:10257C0003F00203002BEED1FB7D012B05D1484B60
:10258C00DB69474A23F08053D3617B68DB69002BFE
:10259C0000F08180424B5B6803F00C03082B61D088
:1025AC007B68DB69022B46D13F4B00221A60FFF798
:1025BC000FFB386108E0FFF70BFB02463B69D31AAF
:1025CC00022B01D9032367E0354B1B6803F0007322
:1025DC00002BF0D17B681B6AB3F5803F08D1304BE0
:1025EC005B6823F400327B689B682D4913434B6076
:1025FC002B4B5B6823F474127B68196A7B685B6AEB
:10260C000B43274913434B60274B01221A60FFF7FA
:10261C00DFFA386108E0FFF7DBFA02463B69D31AB0
:10262C00022B01D9032337E01D4B1B6803F0007309
:10263C00002BF0D02FE01C4B00221A60FFF7C8FAD9
:10264C00386108E0FFF7C4FA02463B69D31A022B43
:10265C0001D9032320E0124B1B6803F00073002BFD
:10266C00F0D118E07B68DB69012B01D1012313E069
:10267C000B4B5B68FB60FB6803F480327B681B6A66
:10268C009A4206D1FB6803F470127B685B6A9A422B
:10269C0001D0012300E0002318461837BD4680BD49
:1026AC0000100240007000406000424280B584B0CF
:1026BC0000AF786039607B68002B01D10123D0E03A
:1026CC006A4B1B6803F007033A689A4210D9674BB0
:1026DC001B6823F0070265493B6813430B60634B8F
:1026EC001B6803F007033A689A4201D00123B8E053
:1026FC007B681B6803F00203002B20D07B681B68EF
:10270C0003F00403002B05D0594B5B68584A43F483
:10271C00E06353607B681B6803F00803002B05D053
:10272C00534B5B68524A43F460535360504B5B68A5
:10273C0023F0F0027B689B684D4913434B607B6828
:10274C001B6803F00103002B40D07B685B68012BF6
:10275C0007D1474B1B6803F40033002B15D1012321
:10276C007FE07B685B68022B07D1414B1B6803F051
:10277C000073002B09D1012373E03D4B1B6803F060
:10278C000203002B01D101236BE0394B5B6823F072
:10279C0003027B685B68364913434B60FFF718FAFA
:1027AC00F8600AE0FFF714FA0246FB68D31A41F20C
:1027BC008832934201D9032353E02D4B5B6803F01D
:1027CC000C027B685B689B009A42EBD1274B1B6821
:1027DC0003F007033A689A4210D2244B1B6823F08B
:1027EC00070222493B6813430B60204B1B6803F024
:1027FC0007033A689A4201D0012332E07B681B68D8
:10280C0003F00403002B08D0194B5B6823F4E0623F
:10281C007B68DB68164913434B607B681B6803F0CD
:10282C000803002B09D0124B5B6823F460527B68C1
:10283C001B69DB000E4913434B6000F021F8024684
:10284C000B4B5B681B0903F00F030A49CB5C22FAA4
:10285C0003F3094A1360094B1B681846FFF776F916
:10286C00002318461037BD4680BD00BF0020024033
:10287C0000100240484600085C0000206000002068
:10288C0090B48AB000AF2A4B3C1D0FCB84E80F00EC
:10289C0040F201233B800023FB610023BB6100233A
:1028AC007B6200237B6100233B62224B5B68FB61F4
:1028BC00FB6903F00C03042B02D0082B03D02DE092
:1028CC001D4B3B622DE0FB699B0C03F00F0307F1E2
:1028DC002802134413F8243C7B61FB6903F4803316
:1028EC00002B13D0134B5B685B0C03F0010307F157
:1028FC002802134413F8283CBB617B690E4A02FB87
:10290C0003F2BB69B2FBF3F37B6204E07B690B4A15
:10291C0002FB03F37B627B6A3B6202E0064B3B6289
:10292C0000BF3B6A18462837BD4690BC704700BFB5
:10293C00384600080010024000127A0000093D00E1
:10294C0080B400AF024B1B681846BD4680BC704774
:10295C005C00002080B500AFFFF7F2FF0246054B8C
:10296C005B681B0A03F007030349CB5C22FA03F3F1
:10297C00184680BD001002405846000880B500AFD4
:10298C00FFF7DEFF0246054B5B68DB0A03F007032B
:10299C000349CB5C22FA03F3184680BD00100240B9
:1029AC005846000880B485B000AF78600A4B1B68AD
:1029BC000A4AA2FB03235B0A7A6802FB03F3FB605F
:1029CC0000BFFB685A1EFA60002BF9D100BF00BF94
:1029DC001437BD4680BC70475C000020D34D62109C
:1029EC0080B582B000AF78607B68002B01D10123E9
:1029FC0041E07B6893F83D30DBB2002B06D17B685D
:102A0C00002283F83C207868FEF796FD7B68022252
:102A1C0083F83D207B681A687B680433194610469E
:102A2C0000F028FC7B68012283F846207B68012299
:102A3C0083F83E207B68012283F83F207B680122CB
:102A4C0083F840207B68012283F841207B680122B7
:102A5C0083F842207B68012283F843207B680122A3
:102A6C0083F844207B68012283F845207B6801228F
:102A7C0083F83D20002318460837BD4680BD000072
:102A8C0080B485B000AF78607B6893F83D30DBB2E2
:102A9C00012B01D001233AE07B68022283F83D2010
:102AAC007B681B68DA687B681B6842F00102DA609D
:102ABC007B681B68184A93420ED07B681B68B3F185
:102ACC00804F09D07B681B68144A934204D07B6802
:102ADC001B68134A934211D17B681B689B6803F0F7
:102AEC000703FB60FB68062B10D07B681B681A6819
:102AFC007B681B6842F001021A6007E07B681B6868
:102B0C001A687B681B6842F001021A6000231846A1
:102B1C001437BD4680BC7047002C014000040040B7
:102B2C000008004080B582B000AF78607B68002B55
:102B3C0001D1012341E07B6893F83D30DBB2002BDF
:102B4C0006D17B68002283F83C20786800F039F8C5
:102B5C007B68022283F83D207B681A687B6804330B
:102B6C001946104600F086FB7B68012283F846204C
:102B7C007B68012283F83E207B68012283F83F208A
:102B8C007B68012283F840207B68012283F8412076
:102B9C007B68012283F842207B68012283F8432062
:102BAC007B68012283F844207B68012283F845204E
:102BBC007B68012283F83D20002318460837BD4668
:102BCC0080BD80B483B000AF786000BF0C37BD46C9
:102BDC0080BC704780B584B000AF786039603B68CA
:102BEC00002B09D17B6893F83E30DBB2012B14BF6C
:102BFC0001230023DBB222E03B68042B09D17B6864
:102C0C0093F83F30DBB2012B14BF01230023DBB25E
:102C1C0015E03B68082B09D17B6893F84030DBB298
:102C2C00012B14BF01230023DBB208E07B6893F86F
:102C3C004130DBB2012B14BF01230023DBB2002B8C
:102C4C0001D001235EE03B68002B04D17B6802229B
:102C5C0083F83E2013E03B68042B04D17B680222EE
:102C6C0083F83F200BE03B68082B04D17B680222E1
:102C7C0083F8402003E07B68022283F841207B68C4
:102C8C001B6801223968184600F074FD7B681B68CC
:102C9C001E4A934207D17B681B685A6C7B681B6881
:102CAC0042F400425A647B681B68184A93420ED067
:102CBC007B681B68B3F1804F09D07B681B68144A92
:102CCC00934204D07B681B68124A934211D17B68F3
:102CDC001B689B6803F00703FB60FB68062B10D096
:102CEC007B681B681A687B681B6842F001021A60DB
:102CFC0007E07B681B681A687B681B6842F001025E
:102D0C001A60002318461037BD4680BD002C0140C8
:102D1C00000400400008004080B582B000AF78602D
:102D2C007B681B681B6903F00203022B22D17B68B2
:102D3C001B68DB6803F00203022B1BD17B681B684A
:102D4C006FF002021A617B6801221A777B681B689C
:102D5C009B6903F00303002B03D0786800F06FFA33
:102D6C0005E0786800F062FA786800F071FA7B6828
:102D7C0000221A777B681B681B6903F00403042B81
:102D8C0022D17B681B68DB6803F00403042B1BD186
:102D9C007B681B686FF004021A617B6802221A7749
:102DAC007B681B689B6903F44073002B03D0786825
:102DBC0000F045FA05E0786800F038FA786800F021
:102DCC0047FA7B6800221A777B681B681B6903F043
:102DDC000803082B22D17B681B68DB6803F008030F
:102DEC00082B1BD17B681B686FF008021A617B688B
:102DFC0004221A777B681B68DB6903F00303002B42
:102E0C0003D0786800F01BFA05E0786800F00EFA41
:102E1C00786800F01DFA7B6800221A777B681B68C3
:102E2C001B6903F01003102B22D17B681B68DB6835
:102E3C0003F01003102B1BD17B681B686FF0100282
:102E4C001A617B6808221A777B681B68DB6903F4BC
:102E5C004073002B03D0786800F0F1F905E0786836
:102E6C0000F0E4F9786800F0F3F97B6800221A7737
:102E7C007B681B681B6903F00103012B0ED17B6877
:102E8C001B68DB6803F00103012B07D17B681B680F
:102E9C006FF001021A617868FEF708FB7B681B680B
:102EAC001B6903F08003802B0ED17B681B68DB68E9
:102EBC0003F08003802B07D17B681B686FF08002C6
:102ECC001A61786800F0E1FC7B681B681B6903F0F1
:102EDC004003402B0ED17B681B68DB6803F040037A
:102EEC00402B07D17B681B686FF040021A61786831
:102EFC0000F0B7F97B681B681B6903F02003202BDB
:102F0C000ED17B681B68DB6803F02003202B07D1F4
:102F1C007B681B686FF020021A61786800F0ACFCCB
:102F2C0000BF0837BD4680BD80B584B000AFF860E7
:102F3C00B9607A60FB6893F83C30012B01D1022315
:102F4C00ACE0FB68012283F83C207B680C2B00F280
:102F5C009F8001A252F823F0992F00089D300008A1
:102F6C009D3000089D300008D92F00089D300008C6
:102F7C009D3000089D3000081B3000089D30000873
:102F8C009D3000089D3000085B300008FB681B6812
:102F9C00B968184600F0D0F9FB681B689A69FB68A1
:102FAC001B6842F008029A61FB681B689A69FB680F
:102FBC001B6822F004029A61FB681B689969BB6864
:102FCC001A69FB681B680A439A6162E0FB681B681C
:102FDC00B968184600F016FAFB681B689A69FB681A
:102FEC001B6842F400629A61FB681B689A69FB6873
:102FFC001B6822F480629A61FB681B689969BB6844
:10300C001B691A02FB681B680A439A6141E0FB6862
:10301C001B68B968184600F05FFAFB681B68DA6930
:10302C00FB681B6842F00802DA61FB681B68DA690E
:10303C00FB681B6822F00402DA61FB681B68D96923
:10304C00BB681A69FB681B680A43DA6121E0FB68FC
:10305C001B68B968184600F0A9FAFB681B68DA69A6
:10306C00FB681B6842F40062DA61FB681B68DA6972
:10307C00FB681B6822F48062DA61FB681B68D96903
:10308C00BB681B691A02FB681B680A43DA6100E023
:10309C0000BFFB68002283F83C2000231846103741
:1030AC00BD4680BD80B584B000AF786039607B6868
:1030BC0093F83C30012B01D10223B3E07B68012251
:1030CC0083F83C207B68022283F83D207B681B68D8
:1030DC009B68FB60FB6823F07703FB60FB6823F4C1
:1030EC007F43FB607B681B68FA689A603B681B68CF
:1030FC00B3F5005F3ED0B3F5005F00F28780B3F507
:10310C00805F00F08580B3F5805F7FD8702B1AD07C
:10311C00702B7BD8602B50D0602B77D8502B3CD0A9
:10312C00502B73D8402B58D0402B6FD8302B64D0F9
:10313C00302B6BD8202B60D0202B67D8002B5CD089
:10314C00102B5AD062E07B6818683B6899683B6822
:10315C005A683B68DB6800F0EEFA7B681B689B687A
:10316C00FB60FB6843F07703FB607B681B68FA68C5
:10317C009A604EE07B6818683B6899683B685A68AF
:10318C003B68DB6800F0D7FA7B681B689A687B6841
:10319C001B6842F480429A603BE07B6818683B688D
:1031AC0059683B68DB681A4600F04EFA7B681B686E
:1031BC005021184600F0A5FA2BE07B6818683B6894
:1031CC0059683B68DB681A4600F06CFA7B681B6830
:1031DC006021184600F095FA1BE07B6818683B6884
:1031EC0059683B68DB681A4600F02EFA7B681B684E
:1031FC004021184600F085FA0BE07B681A683B68A2
:10320C001B681946104600F07CFA02E000BF00E093
:10321C0000BF7B68012283F83D207B68002283F885
:10322C003C20002318461037BD4680BD80B483B0C7
:10323C0000AF786000BF0C37BD4680BC704780B4CF
:10324C0083B000AF786000BF0C37BD4680BC7047C0
:10325C0080B483B000AF786000BF0C37BD4680BC33
:10326C00704780B483B000AF786000BF0C37BD46A8
:10327C0080BC704780B485B000AF786039607B68E3
:10328C001B68FB607B68294A93420BD07B68B3F1C7
:10329C00804F07D07B68264A934203D07B68254A2F
:1032AC00934208D1FB6823F07003FB603B685B68BA
:1032BC00FA681343FB607B681C4A93420BD07B6813
:1032CC00B3F1804F07D07B68194A934203D07B68D7
:1032DC00184A934208D1FB6823F44073FB603B68A7
:1032EC00DB68FA681343FB60FB6823F080023B68E1
:1032FC005B691343FB607B68FA681A603B689A68E9
:10330C007B68DA623B681A687B689A627B68074A5A
:10331C00934203D13B681A697B681A637B6801226C
:10332C005A6100BF1437BD4680BC7047002C014069
:10333C00000400400008004080B487B000AF786003
:10334C0039607B681B6A23F001027B681A627B6818
:10335C001B6A7B617B685B683B617B689B69FB607C
:10336C00FB6823F07003FB60FB6823F00303FB6036
:10337C003B681B68FA681343FB607B6923F002030C
:10338C007B613B689B687A6913437B617B681C4A51
:10339C0093420CD17B6923F008037B613B68DB68AB
:1033AC007A6913437B617B6923F004037B617B683F
:1033BC00134A934211D13B6923F480733B613B69FF
:1033CC0023F400733B613B685B693A6913433B61CF
:1033DC003B689B693A6913433B617B683A695A6065
:1033EC007B68FA689A613B685A687B685A637B68A9
:1033FC007A691A6200BF1C37BD4680BC704700BF9B
:10340C00002C014080B487B000AF786039607B68D5
:10341C001B6A23F010027B681A627B681B6A7B6153
:10342C007B685B683B617B689B69FB60FB6823F492
:10343C00E043FB60FB6823F44073FB603B681B6854
:10344C001B02FA681343FB607B6923F020037B614A
:10345C003B689B681B017A6913437B617B681D4A3F
:10346C0093420DD17B6923F080037B613B68DB6861
:10347C001B017A6913437B617B6923F040037B61F9
:10348C007B68144A934213D13B6923F480633B61FC
:10349C003B6923F400633B613B685B699B003A69C1
:1034AC0013433B613B689B699B003A6913433B6147
:1034BC007B683A695A607B68FA689A613B685A681B
:1034CC007B689A637B687A691A6200BF1C37BD46B9
:1034DC0080BC7047002C014080B487B000AF78608E
:1034EC0039607B681B6A23F480727B681A627B6884
:1034FC001B6A7B617B685B683B617B68DB69FB609B
:10350C00FB6823F07003FB60FB6823F00303FB6094
:10351C003B681B68FA681343FB607B6923F40073F8
:10352C007B613B689B681B027A6913437B617B68F8
:10353C001D4A93420DD17B6923F400637B613B6888
:10354C00DB681B027A6913437B617B6923F480631C
:10355C007B617B68144A934213D13B6923F48053FB
:10356C003B613B6923F400533B613B685B691B0186
:10357C003A6913433B613B689B691B013A691343EE
:10358C003B617B683A695A607B68FA68DA613B6830
:10359C005A687B68DA637B687A691A6200BF1C37E9
:1035AC00BD4680BC704700BF002C014080B487B082
:1035BC0000AF786039607B681B6A23F480527B68AB
:1035CC001A627B681B6A3B617B685B687B617B680A
:1035DC00DB69FB60FB6823F4E043FB60FB6823F4CE
:1035EC004073FB603B681B681B02FA681343FB606B
:1035FC003B6923F400533B613B689B681B033A69AE
:10360C0013433B617B680F4A934209D17B6923F4D6
:10361C0080437B613B685B699B017A6913437B61E7
:10362C007B687A695A607B68FA68DA613B685A6829
:10363C007B681A647B683A691A6200BF1C37BD4606
:10364C0080BC7047002C014080B487B000AFF8609C
:10365C00B9607A60FB681B6A7B61FB681B6A23F0AC
:10366C000102FB681A62FB689B693B613B6923F0B2
:10367C00F0033B617B681B013A6913433B617B6937
:10368C0023F00A037B617A69BB6813437B61FB6897
:10369C003A699A61FB687A691A6200BF1C37BD46A9
:1036AC0080BC704780B487B000AFF860B9607A60B6
:1036BC00FB681B6A23F01002FB681A62FB689B69AB
:1036CC007B61FB681B6A3B617B6923F470437B6104
:1036DC007B681B037A6913437B613B6923F0A0036E
:1036EC003B61BB681B013A6913433B61FB687A6918
:1036FC009A61FB683A691A6200BF1C37BD4680BCF0
:10370C00704780B485B000AF786039607B689B6887
:10371C00FB60FB6823F07003FB603A68FB681343A3
:10372C0043F00703FB607B68FA689A6000BF1437AC
:10373C00BD4680BC704780B487B000AFF860B960FC
:10374C007A603B60FB689B687B617B6923F47F43F9
:10375C007B613B681A027B681A43BB6813437A6926
:10376C0013437B61FB687A699A6000BF1C37BD46C6
:10377C0080BC704780B487B000AFF860B9607A60E5
:10378C00BB6803F01F03012202FA03F37B61FB68A1
:10379C001A6A7B69DB431A40FB681A62FB681A6A77
:1037AC00BB6803F01F03796801FA03F31A43FB6843
:1037BC001A6200BF1C37BD4680BC704780B485B010
:1037CC0000AF786039607B6893F83C30012B01D1F5
:1037DC00022346E07B68012283F83C207B680222AE
:1037EC0083F83D207B681B685B68FB607B681B680B
:1037FC009B68BB60FB6823F07003FB603B681B6835
:10380C00FA681343FB607B681B68FA685A607B6834
:10381C001B68164A93420ED07B681B68B3F1804F2D
:10382C0009D07B681B68124A934204D07B681B68E2
:10383C00104A93420CD1BB6823F08003BB603B68F9
:10384C005B68BA681343BB607B681B68BA689A6094
:10385C007B68012283F83D207B68002283F83C20A2
:10386C00002318461437BD4680BC7047002C01401D
:10387C00000400400008004080B483B000AF7860C2
:10388C0000BF0C37BD4680BC704780B483B000AF1E
:10389C00786000BF0C37BD4680BC704780B582B0E5
:1038AC0000AF78607B68002B01D101233FE07B687F
:1038BC0093F83D30DBB2002B06D17B68002283F8F5
:1038CC003C207868FDF7A2FE7B68242283F83D201B
:1038DC007B681B68DA687B681B6822F40052DA602C
:1038EC00786800F06DF97B681B681A697B681B6847
:1038FC0022F490421A617B681B685A697B681B68CA
:10390C0022F02A025A617B681B68DA687B681B68A4
:10391C0042F40052DA607B6800221A647B68202231
:10392C0083F83D207B68202283F83E200023184634
:10393C000837BD4680BD80B58AB002AFF860B9606B
:10394C003B601346FB8000237B61FB6893F83D30A2
:10395C00DBB2202B7CD1BB68002B02D0FB88002B68
:10396C0001D1012375E0FB6893F83C30012B01D1A8
:10397C0002236EE0FB68012283F83C20FB680022E6
:10398C001A64FB68212283F83D20FEF721F9786147
:10399C00FB68FA889A84FB68FA88DA84FB689B686F
:1039AC00B3F5805F08D1FB681B69002B04D10023A1
:1039BC00FB61BB68BB6103E0BB68FB610023BB61BF
:1039CC00FB68002283F83C202AE03B6800937B696B
:1039DC0000228021F86800F070F80346002B01D01B
:1039EC00032336E0FB69002B0BD1BB691B881A46FD
:1039FC00FB681B68C2F308025A60BB690233BB61E7
:103A0C0007E0FB691A78FB681B685A60FB69013395
:103A1C00FB61FB68DB8C9BB2013B9AB2FB68DA84DE
:103A2C00FB68DB8C9BB2002BCFD13B6800937B698E
:103A3C0000224021F86800F040F80346002B01D02A
:103A4C00032306E0FB68202283F83D20002300E0DE
:103A5C00022318462037BD4680BD80B584B000AF28
:103A6C00F860B9601346FB80FB6893F83E30DBB21C
:103A7C00202B1DD1BB68002B02D0FB88002B01D161
:103A8C00012316E0FB6893F83C30012B01D1022393
:103A9C000FE0FB68012283F83C20FB6800221A63CC
:103AAC00FB881A46B968F86800F051F8034600E044
:103ABC00022318461037BD4680BD80B584B000AFD8
:103ACC00F860B9603B601346FB712CE0BB69B3F145
:103ADC00FF3F28D0BB69002B07D0FEF779F80246D0
:103AEC003B68D31ABA699A421DD2FB681B68DA6824
:103AFC00FB681B6822F4D072DA60FB681B685A6999
:103B0C00FB681B6822F001025A61FB68202283F8D3
:103B1C003D20FB68202283F83E20FB68002283F8BE
:103B2C003C2003230FE0FB681B681A68BB6813403A
:103B3C00BA689A420CBF01230023DBB21A46FB7908
:103B4C009A42C3D0002318461037BD4680BD80B4BE
:103B5C0085B000AFF860B9601346FB80FB68BA68AB
:103B6C009A62FB68FA889A85FB68FA88DA85FB68A2
:103B7C0000221A64FB68222283F83E20FB68002294
:103B8C0083F83C20FB681B68DA68FB681B6842F40E
:103B9C008072DA60FB681B685A69FB681B6842F02C
:103BAC0001025A61FB681B68DA68FB681B6842F00B
:103BBC002002DA60002318461437BD4680BC7047DB
:103BCC0080B584B000AF78607B681B681B6923F4F8
:103BDC0040517B68DA687B681B680A431A617B6812
:103BEC009A687B681B691A437B685B691343BB60EB
:103BFC007B681B68DB6823F4B05323F00C037A68F2
:103C0C001268B9680B43D3607B681B685B6923F44B
:103C1C0040717B689A697B681B680A435A617B68B0
:103C2C001B682C4A934203D1FEF7A8FEF86002E011
:103C3C00FEF790FEF860FA6813469B0013449A0056
:103C4C001A447B685B689B00B2FBF3F3224AA2FB2D
:103C5C0003235B091901FA6813469B0013449A006D
:103C6C001A447B685B689B00B2FBF3F21A4BA3FB14
:103C7C0002035B09642000FB03F3D31A1B013233EC
:103C8C00154AA2FB03235B0903F0F0031944FA68FD
:103C9C0013469B0013449A001A447B685B689B0094
:103CAC00B2FBF3F20C4BA3FB02035B09642000FB99
:103CBC0003F3D31A1B013233074AA2FB03235B091C
:103CCC0003F00F027B681B680A449A6000BF103730
:103CDC00BD4680BD003801401F85EB51014B186873
:103CEC00704700BF6800002070B500260C4D0D4CCD
:103CFC00641BA410A64209D100F06CFC00260A4DEE
:103D0C000A4C641BA410A64205D170BD55F8043BA7
:103D1C0098470136EEE755F8043B98470136F2E731
:103D2C0094460008944600089446000898460008FB
:103D3C00024B0146186800F05FB800BF6800002015
:103D4C00024B0146186800F00BB800BF6800002059
:103D5C0003460244934200D1704703F8011BF9E774
:103D6C0038B50546002943D051F8043C0C1F002BF4
:103D7C00B8BFE41800F0CAF81E4A1368104633B9ED
:103D8C00636014602846BDE8384000F0C5B8A34213
:103D9C000AD921686218934201BF1A685B685218ED
:103DAC00226063600460EDE71A465B680BB1A342C6
:103DBC00FAD911685018A0420BD120680144501850
:103DCC0083421160DED118685B6801441160536056
:103DDC00D8E702D90C232B60D4E7206821188B423A
:103DEC0001BF19685B680918216063605460C9E7FA
:103DFC0038BD00BF44010020F8B5CD1C25F00305EB
:103E0C0008350C2D38BF0C25002D064601DBA942C8
:103E1C0003D90C2333600020F8BD00F077F821495A
:103E2C000A6814469CB9204F3B6823B9214630469A
:103E3C0000F03CF838602946304600F037F8431C57
:103E4C0023D10C233046336000F066F8E3E7236897
:103E5C005B1B17D40B2B03D923601C44256004E097
:103E6C006368A2420CBF0B605360304600F054F8FC
:103E7C0004F10B00231D20F00700C21ACCD01B1A32
:103E8C00A350C9E722466468CCE7C41C24F00304A1
:103E9C00A042E3D0211A304600F008F80130DDD101
:103EAC00CFE700BF440100204801002038B50023B3
:103EBC00054D044608462B60FDF720FC431C02D13F
:103ECC002B6803B1236038BD600200200EB46FF084
:103EDC00004100B59CB01DAB029006900791049177
:103EEC000848094953F8042B0591006802A901936D
:103EFC0000F074F80022029B1A701CB05DF804EB01
:103F0C0003B07047680000200802FFFF014800F072
:103F1C00FBBA00BF68020020014800F0F6BA00BFEF
:103F2C00680200202DE9F0478E6882469E420C46BE
:103F3C0090461F4638D88A8912F4906F32D0256883
:103F4C0009690133A5EB010965694B4405EB45058E
:103F5C0005EBD5756D109D4238BF1D46530531D507
:103F6C002946FFF749FF064650B90C234FF0FF30A6
:103F7C00CAF80030A38943F04003A381BDE8F08761
:103F8C004A46216900F0D0FAA38923F4906343F0E8
:103F9C008003A38126614E4426603E466561A5EBF5
:103FAC000905A560BE4200D93E463246414620680E
:103FBC0000F0C8FAA36822689B1B32440020A3605F
:103FCC002260DBE72A4600F0D7FA06460028E1D14A
:103FDC0050462169FFF7C4FEC7E700002DE9F04FFA
:103FEC0098468B8907461B060D4614469DB00ED588
:103FFC000B6963B94021FFF7FFFE2860286120B9E7
:10400C000C233B604FF0FF30D1E040236B61002369
:10401C00099320238DF8293030234FF00109CDF876
:10402C000C80DFF8A4818DF82A3023469A4613F8C9
:10403C00012B0AB1252AF9D1BAEB040B0BD05B4644
:10404C00224629463846FFF76DFF013000F0AA8062
:10405C00099A5A4409929AF80030002B00F0A28079
:10406C0000234FF0FF32CDE905230AF1010A049336
:10407C0007938DF853301A935446052214F8011BFC
:10408C00514800F043FA049AD8B9D00644BF202313
:10409C008DF85330110744BF2B238DF853309AF809
:1040AC0000302A2B15D0544600204FF00A0C079AEA
:1040BC00214611F8013B303B092B4ED9B0B1079288
:1040CC0014E0A0EB080309FA03F31343A24604938C
:1040DC00D2E7039B191D1B680391002BBBBF5B42EE
:1040EC0042F0020207930793B8BF049223782E2B59
:1040FC000CD163782A2B35D1039B02341A1D1B6813
:10410C000392002BB8BF4FF0FF330593DFF8C8A024
:10411C0003225046217800F0F9F940B14023A0EB7E
:10412C000A0003FA00F0049B01340343049314F8CF
:10413C00011B062225488DF8281000F0E7F900280D
:10414C0038D0234B1BBB039B073323F007030833E7
:10415C000393099B3344099367E70C4601200CFB3E
:10416C000232A5E700234FF00A0C194601340593DF
:10417C00204610F8012B303A092A03D9002BC5D060
:10418C000591C3E7044601230CFB0121F0E703ABC7
:10419C0000932A4638460F4B04A9AFF30080421C0B
:1041AC000646D6D1AB895B063FF52CAF09981DB0FE
:1041BC00BDE8F08F03AB00932A463846054B04A9A3
:1041CC0000F07CF8EBE700BF604600086A46000888
:1041DC0000000000313F0008664600082DE9F0475A
:1041EC00164699468A680B6907469342B8BF134630
:1041FC00336091F843200C46DDF820800AB101337E
:10420C0033602368990642BF3368023333602568F4
:10421C0015F0060506D104F1190AE36832689B1AF9
:10422C00AB4228DC94F84320131E226818BF0123EC
:10423C0092062DD44946384604F14302C04701305A
:10424C0020D02368E56803F00603042B18BF002573
:10425C0032684FF00006A36808BFAD1A226908BF88
:10426C0025EAE5759342C4BF9B1AED181A34B54282
:10427C001AD1002008E00123524649463846C0476F
:10428C00013003D14FF0FF30BDE8F0870135C4E7B2
:10429C003020E11881F843005A1C94F84510224450
:1042AC00023382F84310C5E70123224649463846BB
:1042BC00C0470130E6D00136D9E700002DE9FF47B1
:1042CC000C46277E9146782F80469A460C9904F12D
:1042DC00430207D8622F0AD8002F00F0D980582F3C
:1042EC0000F0A48004F1420684F842703AE0A7F191
:1042FC006303152BF6D801A050F823F06143000896
:10430C0075430008F1420008F1420008F142000830
:10431C00F142000875430008F1420008F142000820
:10432C00F1420008F142000883440008A54300084C
:10433C0065440008F1420008F1420008A544000859
:10434C00F1420008A5430008F1420008F1420008C0
:10435C006D4400080B6804F142061A1D1B680A60C4
:10436C0084F842300123A4E0256808682E0600F189
:10437C0004030AD505680B60002D03DA2D236D426A
:10438C0084F843300A235E4819E015F0400F0568A5
:10439C000B6018BF2DB2EFE70B682568181D08607D
:1043AC00280601D51D6802E06906FBD51D886F2F14
:1043BC000CBF08230A235248002184F84310666876
:1043CC00002EA8BF2168A660A4BF21F004012160C3
:1043DC000DB9002E4DD01646B5FBF3F103FB11576A
:1043EC00C75D06F8017D2F46BB420D46F4D9082B5C
:1043FC000BD12368DF0708D5236961689942DEBFBA
:10440C00302306F8013C06F1FF36921B22614B4625
:10441C0021464046CDF800A003AAFFF7DFFE01308D
:10442C004CD14FF0FF3004B0BDE8F087344884F82D
:10443C0045700E68236856F8045B1F060E6014D591
:10444C00D90744BF43F0200323601DB9236823F030
:10445C00200323601023AFE7236843F0200323607D
:10446C007823284884F84530E3E75E0648BFADB2B0
:10447C00E6E71646BBE70B6826681D1D60690D60F4
:10448C0035061B6801D5186002E07106FBD5188053
:10449C00002316462361BAE70B681A1D0A601E68D2
:1044AC0000213046626800F031F808B1801B606072
:1044BC0063682361002384F84330A8E732464946F9
:1044CC0040462369D0470130ABD023689B0713D4F7
:1044DC00E068039B9842B8BF1846A4E70123324614
:1044EC0049464046D04701309BD00135E3680399DB
:1044FC005B1AAB42F2DCEBE7002504F11906F5E799
:10450C00714600088246000870477047034610B594
:10451C00C9B202449342184601D1002003E004784A
:10452C0001338C42F6D110BD0A44914200F1FF33A5
:10453C0000D1704710B511F8014B914203F8014FAF
:10454C00F9D110BD884210B501EB020402D98442A6
:10455C00234607D8431EA14208D011F8012B03F8BB
:10456C00012FF8E7014602448A4200D110BD13F82E
:10457C00014D02F8014DF7E7F8B5074614460E4613
:10458C0021B91146BDE8F840FFF736BC22B9FFF758
:10459C00E7FB25462846F8BD00F014F8A0420FD2E0
:1045AC0021463846FFF728FC05460028F2D0314654
:1045BC002246FFF7B9FF31463846FFF7D1FBE9E752
:1045CC003546E7E751F8043C181F002BBCBF0B58CD
:1045DC00C0187047F8B500BFF8BC08BC9E467047C1
:0C45EC00F8B500BFF8BC08BC9E46704744
:1045F8005065646573747269616E20647572617464
:10460800696F6E3A20000000547261666669632023
:104618006475726174696F6E3A20000048454C4CAD
:104628004F210D0A000000002573256C640D0A0057
:1046380002030405060708090A0B0C0D0E0F1010DB
:10464800000000000000000001020304060708093A
:104658000000000001020304232D302B2000686CA9
:104668004C0065666745464700303132333435368D
:1046780037383941424344454600303132333435C6
:0C468800363738396162636465660000F3
:0446940031010008E8
:044698000D01000808
:10469C00010000000000000000000000000000000D
:1046AC0001000000000000000000000000000000FD
:1046BC0001000000000000000000000000000000ED
:1046CC0001000000000000000000000000000000DD
:1046DC002C010000000000000000000000000000A1
:1046EC0088130000B80B0000D00700000024F40071
:1046FC0010000000010000006C0000200000000011
:10470C00000000000000000000000000000000009D
:10471C00000000000000000000000000000000008D
:10472C00000000000000000000000000000000007D
:10473C00000000000000000000000000000000006D
:10474C00000000000000000000000000000000005D
:0C475C0000000000000000000000000051
:0400000508001AE1F4
:00000001FF
